{
  "address": "0x17aa92E0B94321b011BDc975101cdf9a8819d2bA",
  "abi": [
    {
      "inputs": [],
      "stateMutability": "nonpayable",
      "type": "constructor"
    },
    {
      "inputs": [],
      "name": "ERC1167FailedCreateClone",
      "type": "error"
    },
    {
      "inputs": [],
      "name": "ReentrancyGuardReentrantCall",
      "type": "error"
    },
    {
      "anonymous": false,
      "inputs": [
        {
          "indexed": false,
          "internalType": "address",
          "name": "token",
          "type": "address"
        },
        {
          "indexed": true,
          "internalType": "address",
          "name": "user",
          "type": "address"
        },
        {
          "indexed": true,
          "internalType": "bytes32",
          "name": "salt",
          "type": "bytes32"
        },
        {
          "indexed": false,
          "internalType": "uint256",
          "name": "amount",
          "type": "uint256"
        },
        {
          "indexed": false,
          "internalType": "address",
          "name": "smartWallet",
          "type": "address"
        }
      ],
      "name": "WithdrawERC20",
      "type": "event"
    },
    {
      "inputs": [],
      "name": "TEMPLATE",
      "outputs": [
        {
          "internalType": "address",
          "name": "",
          "type": "address"
        }
      ],
      "stateMutability": "view",
      "type": "function"
    },
    {
      "inputs": [
        {
          "internalType": "bytes32",
          "name": "salt",
          "type": "bytes32"
        },
        {
          "internalType": "address",
          "name": "caller",
          "type": "address"
        }
      ],
      "name": "getAddress",
      "outputs": [
        {
          "internalType": "address",
          "name": "smartWallet",
          "type": "address"
        }
      ],
      "stateMutability": "view",
      "type": "function"
    },
    {
      "inputs": [
        {
          "internalType": "bytes32",
          "name": "salt",
          "type": "bytes32"
        },
        {
          "internalType": "bytes4",
          "name": "selector",
          "type": "bytes4"
        },
        {
          "internalType": "bytes",
          "name": "data",
          "type": "bytes"
        }
      ],
      "name": "invokeSmartWallet",
      "outputs": [],
      "stateMutability": "nonpayable",
      "type": "function"
    },
    {
      "inputs": [
        {
          "internalType": "bytes32",
          "name": "salt",
          "type": "bytes32"
        },
        {
          "internalType": "address[]",
          "name": "targets",
          "type": "address[]"
        },
        {
          "internalType": "uint256[]",
          "name": "values",
          "type": "uint256[]"
        },
        {
          "internalType": "bytes[]",
          "name": "calldatas",
          "type": "bytes[]"
        }
      ],
      "name": "proxyCall",
      "outputs": [
        {
          "internalType": "bytes[]",
          "name": "outputs",
          "type": "bytes[]"
        }
      ],
      "stateMutability": "nonpayable",
      "type": "function"
    }
  ],
  "transactionHash": "0xd0f122f998c99f2f800826280894179c477c6daf33938a42f5fda952e71d6e12",
  "args": [],
  "numDeployments": 1,
  "solcInputHash": "7663e2c53076926209cca316e897696a",
  "bytecode": "0x60a060405234801561001057600080fd5b5060016000819055506040516100259061007a565b604051809103906000f080158015610041573d6000803e3d6000fd5b5073ffffffffffffffffffffffffffffffffffffffff1660808173ffffffffffffffffffffffffffffffffffffffff1681525050610087565b6112218061124083390190565b60805161118a6100b66000396000818160f2015281816101490152818161017c01526102d2015261118a6000f3fe608060405234801561001057600080fd5b506004361061004c5760003560e01c806320d06ff9146100515780638bfd917414610081578063b47bea2e1461009f578063da66b77b146100cf575b600080fd5b61006b600480360381019061006691906105c2565b6100eb565b6040516100789190610611565b60405180910390f35b610089610147565b6040516100969190610611565b60405180910390f35b6100b960048036038101906100b49190610a14565b61016b565b6040516100c69190610c10565b60405180910390f35b6100e960048036038101906100e49190610ce5565b6102c3565b005b600061013f7f00000000000000000000000000000000000000000000000000000000000000008484604051602001610124929190610d68565b604051602081830303815290604052805190602001206103a1565b905092915050565b7f000000000000000000000000000000000000000000000000000000000000000081565b60606101756103b6565b60006101c97f000000000000000000000000000000000000000000000000000000000000000087336040516020016101ae929190610d68565b604051602081830303815290604052805190602001206103fc565b90508073ffffffffffffffffffffffffffffffffffffffff16634ad11bce8686866040518463ffffffff1660e01b815260040161020893929190610f0d565b6000604051808303816000875af1158015610227573d6000803e3d6000fd5b505050506040513d6000823e3d601f19601f82011682018060405250810190610250919061107e565b91508073ffffffffffffffffffffffffffffffffffffffff16633ff5b85f6040518163ffffffff1660e01b8152600401600060405180830381600087803b15801561029a57600080fd5b505af11580156102ae573d6000803e3d6000fd5b50505050506102bb6104af565b949350505050565b6102cb6103b6565b600061031f7f00000000000000000000000000000000000000000000000000000000000000008633604051602001610304929190610d68565b604051602081830303815290604052805190602001206103fc565b90508073ffffffffffffffffffffffffffffffffffffffff16635a0f40f3338686866040518563ffffffff1660e01b81526004016103609493929190611114565b600060405180830381600087803b15801561037a57600080fd5b505af115801561038e573d6000803e3d6000fd5b505050505061039b6104af565b50505050565b60006103ae8383306104b9565b905092915050565b6002600054036103f2576040517f3ee5aeb500000000000000000000000000000000000000000000000000000000815260040160405180910390fd5b6002600081905550565b6000763d602d80600a3d3981f3363d3d373d3d3d363d730000008360601b60e81c176000526e5af43d82803e903d91602b57fd5bf38360781b1760205281603760096000f59050600073ffffffffffffffffffffffffffffffffffffffff168173ffffffffffffffffffffffffffffffffffffffff16036104a9576040517fc2f868f400000000000000000000000000000000000000000000000000000000815260040160405180910390fd5b92915050565b6001600081905550565b60006040518260388201526f5af43d82803e903d91602b57fd5bf3ff6024820152846014820152733d602d80600a3d3981f3363d3d373d3d3d363d7381528360588201526037600c8201206078820152605560438201209150509392505050565b6000604051905090565b600080fd5b600080fd5b6000819050919050565b6105418161052e565b811461054c57600080fd5b50565b60008135905061055e81610538565b92915050565b600073ffffffffffffffffffffffffffffffffffffffff82169050919050565b600061058f82610564565b9050919050565b61059f81610584565b81146105aa57600080fd5b50565b6000813590506105bc81610596565b92915050565b600080604083850312156105d9576105d8610524565b5b60006105e78582860161054f565b92505060206105f8858286016105ad565b9150509250929050565b61060b81610584565b82525050565b60006020820190506106266000830184610602565b92915050565b600080fd5b6000601f19601f8301169050919050565b7f4e487b7100000000000000000000000000000000000000000000000000000000600052604160045260246000fd5b61067a82610631565b810181811067ffffffffffffffff8211171561069957610698610642565b5b80604052505050565b60006106ac61051a565b90506106b88282610671565b919050565b600067ffffffffffffffff8211156106d8576106d7610642565b5b602082029050602081019050919050565b600080fd5b60006107016106fc846106bd565b6106a2565b90508083825260208201905060208402830185811115610724576107236106e9565b5b835b8181101561074d578061073988826105ad565b845260208401935050602081019050610726565b5050509392505050565b600082601f83011261076c5761076b61062c565b5b813561077c8482602086016106ee565b91505092915050565b600067ffffffffffffffff8211156107a05761079f610642565b5b602082029050602081019050919050565b6000819050919050565b6107c4816107b1565b81146107cf57600080fd5b50565b6000813590506107e1816107bb565b92915050565b60006107fa6107f584610785565b6106a2565b9050808382526020820190506020840283018581111561081d5761081c6106e9565b5b835b81811015610846578061083288826107d2565b84526020840193505060208101905061081f565b5050509392505050565b600082601f8301126108655761086461062c565b5b81356108758482602086016107e7565b91505092915050565b600067ffffffffffffffff82111561089957610898610642565b5b602082029050602081019050919050565b600080fd5b600067ffffffffffffffff8211156108ca576108c9610642565b5b6108d382610631565b9050602081019050919050565b82818337600083830152505050565b60006109026108fd846108af565b6106a2565b90508281526020810184848401111561091e5761091d6108aa565b5b6109298482856108e0565b509392505050565b600082601f8301126109465761094561062c565b5b81356109568482602086016108ef565b91505092915050565b600061097261096d8461087e565b6106a2565b90508083825260208201905060208402830185811115610995576109946106e9565b5b835b818110156109dc57803567ffffffffffffffff8111156109ba576109b961062c565b5b8086016109c78982610931565b85526020850194505050602081019050610997565b5050509392505050565b600082601f8301126109fb576109fa61062c565b5b8135610a0b84826020860161095f565b91505092915050565b60008060008060808587031215610a2e57610a2d610524565b5b6000610a3c8782880161054f565b945050602085013567ffffffffffffffff811115610a5d57610a5c610529565b5b610a6987828801610757565b935050604085013567ffffffffffffffff811115610a8a57610a89610529565b5b610a9687828801610850565b925050606085013567ffffffffffffffff811115610ab757610ab6610529565b5b610ac3878288016109e6565b91505092959194509250565b600081519050919050565b600082825260208201905092915050565b6000819050602082019050919050565b600081519050919050565b600082825260208201905092915050565b60005b83811015610b35578082015181840152602081019050610b1a565b60008484015250505050565b6000610b4c82610afb565b610b568185610b06565b9350610b66818560208601610b17565b610b6f81610631565b840191505092915050565b6000610b868383610b41565b905092915050565b6000602082019050919050565b6000610ba682610acf565b610bb08185610ada565b935083602082028501610bc285610aeb565b8060005b85811015610bfe5784840389528151610bdf8582610b7a565b9450610bea83610b8e565b925060208a01995050600181019050610bc6565b50829750879550505050505092915050565b60006020820190508181036000830152610c2a8184610b9b565b905092915050565b60007fffffffff0000000000000000000000000000000000000000000000000000000082169050919050565b610c6781610c32565b8114610c7257600080fd5b50565b600081359050610c8481610c5e565b92915050565b600080fd5b60008083601f840112610ca557610ca461062c565b5b8235905067ffffffffffffffff811115610cc257610cc1610c8a565b5b602083019150836001820283011115610cde57610cdd6106e9565b5b9250929050565b60008060008060608587031215610cff57610cfe610524565b5b6000610d0d8782880161054f565b9450506020610d1e87828801610c75565b935050604085013567ffffffffffffffff811115610d3f57610d3e610529565b5b610d4b87828801610c8f565b925092505092959194509250565b610d628161052e565b82525050565b6000604082019050610d7d6000830185610d59565b610d8a6020830184610602565b9392505050565b600081519050919050565b600082825260208201905092915050565b6000819050602082019050919050565b610dc681610584565b82525050565b6000610dd88383610dbd565b60208301905092915050565b6000602082019050919050565b6000610dfc82610d91565b610e068185610d9c565b9350610e1183610dad565b8060005b83811015610e42578151610e298882610dcc565b9750610e3483610de4565b925050600181019050610e15565b5085935050505092915050565b600081519050919050565b600082825260208201905092915050565b6000819050602082019050919050565b610e84816107b1565b82525050565b6000610e968383610e7b565b60208301905092915050565b6000602082019050919050565b6000610eba82610e4f565b610ec48185610e5a565b9350610ecf83610e6b565b8060005b83811015610f00578151610ee78882610e8a565b9750610ef283610ea2565b925050600181019050610ed3565b5085935050505092915050565b60006060820190508181036000830152610f278186610df1565b90508181036020830152610f3b8185610eaf565b90508181036040830152610f4f8184610b9b565b9050949350505050565b6000610f6c610f67846108af565b6106a2565b905082815260208101848484011115610f8857610f876108aa565b5b610f93848285610b17565b509392505050565b600082601f830112610fb057610faf61062c565b5b8151610fc0848260208601610f59565b91505092915050565b6000610fdc610fd78461087e565b6106a2565b90508083825260208201905060208402830185811115610fff57610ffe6106e9565b5b835b8181101561104657805167ffffffffffffffff8111156110245761102361062c565b5b8086016110318982610f9b565b85526020850194505050602081019050611001565b5050509392505050565b600082601f8301126110655761106461062c565b5b8151611075848260208601610fc9565b91505092915050565b60006020828403121561109457611093610524565b5b600082015167ffffffffffffffff8111156110b2576110b1610529565b5b6110be84828501611050565b91505092915050565b6110d081610c32565b82525050565b600082825260208201905092915050565b60006110f383856110d6565b93506111008385846108e0565b61110983610631565b840190509392505050565b60006060820190506111296000830187610602565b61113660208301866110c7565b81810360408301526111498184866110e7565b90509594505050505056fea2646970667358221220dfee96a1562754c1446436e06de8f4da7dadf61e9d1ba775764991d9be48e87b64736f6c6343000813003360a060405234801561001057600080fd5b5060016000819055503373ffffffffffffffffffffffffffffffffffffffff1660808173ffffffffffffffffffffffffffffffffffffffff16815250506080516111ac6100756000396000818160c00152818161017101526103e501526111ac6000f3fe6080604052600436106100385760003560e01c80633ff5b85f146100415780634ad11bce146100585780635a0f40f3146100955761003f565b3661003f57005b005b34801561004d57600080fd5b506100566100be565b005b34801561006457600080fd5b5061007f600480360381019061007a9190610b12565b610165565b60405161008c9190610cfa565b60405180910390f35b3480156100a157600080fd5b506100bc60048036038101906100b79190610dcf565b6103db565b005b7f000000000000000000000000000000000000000000000000000000000000000073ffffffffffffffffffffffffffffffffffffffff163373ffffffffffffffffffffffffffffffffffffffff161461014c576040517f08c379a000000000000000000000000000000000000000000000000000000000815260040161014390610ea0565b60405180910390fd5b3073ffffffffffffffffffffffffffffffffffffffff16ff5b606061016f6105a3565b7f000000000000000000000000000000000000000000000000000000000000000073ffffffffffffffffffffffffffffffffffffffff163373ffffffffffffffffffffffffffffffffffffffff16146101fd576040517f08c379a00000000000000000000000000000000000000000000000000000000081526004016101f490610ea0565b60405180910390fd5b61023c6040518060400160405280601381526020017f61646472657373206f6620746869733a20257300000000000000000000000000815250306105e9565b835167ffffffffffffffff811115610257576102566106e2565b5b60405190808252806020026020018201604052801561028a57816020015b60608152602001906001900390816102755790505b50905060005b84518110156103cb576000808683815181106102af576102ae610ec0565b5b602002602001015173ffffffffffffffffffffffffffffffffffffffff168684815181106102e0576102df610ec0565b5b60200260200101518685815181106102fb576102fa610ec0565b5b60200260200101516040516103109190610f2b565b60006040518083038185875af1925050503d806000811461034d576040519150601f19603f3d011682016040523d82523d6000602084013e610352565b606091505b509150915081610397576040517f08c379a000000000000000000000000000000000000000000000000000000000815260040161038e90610f8e565b60405180910390fd5b808484815181106103ab576103aa610ec0565b5b6020026020010181905250505080806103c390610fdd565b915050610290565b506103d4610685565b9392505050565b6103e36105a3565b7f000000000000000000000000000000000000000000000000000000000000000073ffffffffffffffffffffffffffffffffffffffff163373ffffffffffffffffffffffffffffffffffffffff1614610471576040517f08c379a000000000000000000000000000000000000000000000000000000000815260040161046890610ea0565b60405180910390fd5b60008473ffffffffffffffffffffffffffffffffffffffff1684848460405160240161049e929190611063565b604051602081830303815290604052907bffffffffffffffffffffffffffffffffffffffffffffffffffffffff19166020820180517bffffffffffffffffffffffffffffffffffffffffffffffffffffffff83818316178352505050506040516105089190610f2b565b600060405180830381855af49150503d8060008114610543576040519150601f19603f3d011682016040523d82523d6000602084013e610548565b606091505b505090508061058c576040517f08c379a0000000000000000000000000000000000000000000000000000000008152600401610583906110d3565b60405180910390fd5b6105946100be565b5061059d610685565b50505050565b6002600054036105df576040517f3ee5aeb500000000000000000000000000000000000000000000000000000000815260040160405180910390fd5b6002600081905550565b61068182826040516024016105ff929190611146565b6040516020818303038152906040527f319af333000000000000000000000000000000000000000000000000000000007bffffffffffffffffffffffffffffffffffffffffffffffffffffffff19166020820180517bffffffffffffffffffffffffffffffffffffffffffffffffffffffff838183161783525050505061068f565b5050565b6001600081905550565b60008151905060006a636f6e736f6c652e6c6f679050602083016000808483855afa5050505050565b6000604051905090565b600080fd5b600080fd5b600080fd5b6000601f19601f8301169050919050565b7f4e487b7100000000000000000000000000000000000000000000000000000000600052604160045260246000fd5b61071a826106d1565b810181811067ffffffffffffffff82111715610739576107386106e2565b5b80604052505050565b600061074c6106b8565b90506107588282610711565b919050565b600067ffffffffffffffff821115610778576107776106e2565b5b602082029050602081019050919050565b600080fd5b600073ffffffffffffffffffffffffffffffffffffffff82169050919050565b60006107b98261078e565b9050919050565b6107c9816107ae565b81146107d457600080fd5b50565b6000813590506107e6816107c0565b92915050565b60006107ff6107fa8461075d565b610742565b9050808382526020820190506020840283018581111561082257610821610789565b5b835b8181101561084b578061083788826107d7565b845260208401935050602081019050610824565b5050509392505050565b600082601f83011261086a576108696106cc565b5b813561087a8482602086016107ec565b91505092915050565b600067ffffffffffffffff82111561089e5761089d6106e2565b5b602082029050602081019050919050565b6000819050919050565b6108c2816108af565b81146108cd57600080fd5b50565b6000813590506108df816108b9565b92915050565b60006108f86108f384610883565b610742565b9050808382526020820190506020840283018581111561091b5761091a610789565b5b835b81811015610944578061093088826108d0565b84526020840193505060208101905061091d565b5050509392505050565b600082601f830112610963576109626106cc565b5b81356109738482602086016108e5565b91505092915050565b600067ffffffffffffffff821115610997576109966106e2565b5b602082029050602081019050919050565b600080fd5b600067ffffffffffffffff8211156109c8576109c76106e2565b5b6109d1826106d1565b9050602081019050919050565b82818337600083830152505050565b6000610a006109fb846109ad565b610742565b905082815260208101848484011115610a1c57610a1b6109a8565b5b610a278482856109de565b509392505050565b600082601f830112610a4457610a436106cc565b5b8135610a548482602086016109ed565b91505092915050565b6000610a70610a6b8461097c565b610742565b90508083825260208201905060208402830185811115610a9357610a92610789565b5b835b81811015610ada57803567ffffffffffffffff811115610ab857610ab76106cc565b5b808601610ac58982610a2f565b85526020850194505050602081019050610a95565b5050509392505050565b600082601f830112610af957610af86106cc565b5b8135610b09848260208601610a5d565b91505092915050565b600080600060608486031215610b2b57610b2a6106c2565b5b600084013567ffffffffffffffff811115610b4957610b486106c7565b5b610b5586828701610855565b935050602084013567ffffffffffffffff811115610b7657610b756106c7565b5b610b828682870161094e565b925050604084013567ffffffffffffffff811115610ba357610ba26106c7565b5b610baf86828701610ae4565b9150509250925092565b600081519050919050565b600082825260208201905092915050565b6000819050602082019050919050565b600081519050919050565b600082825260208201905092915050565b60005b83811015610c1f578082015181840152602081019050610c04565b60008484015250505050565b6000610c3682610be5565b610c408185610bf0565b9350610c50818560208601610c01565b610c59816106d1565b840191505092915050565b6000610c708383610c2b565b905092915050565b6000602082019050919050565b6000610c9082610bb9565b610c9a8185610bc4565b935083602082028501610cac85610bd5565b8060005b85811015610ce85784840389528151610cc98582610c64565b9450610cd483610c78565b925060208a01995050600181019050610cb0565b50829750879550505050505092915050565b60006020820190508181036000830152610d148184610c85565b905092915050565b60007fffffffff0000000000000000000000000000000000000000000000000000000082169050919050565b610d5181610d1c565b8114610d5c57600080fd5b50565b600081359050610d6e81610d48565b92915050565b600080fd5b60008083601f840112610d8f57610d8e6106cc565b5b8235905067ffffffffffffffff811115610dac57610dab610d74565b5b602083019150836001820283011115610dc857610dc7610789565b5b9250929050565b60008060008060608587031215610de957610de86106c2565b5b6000610df7878288016107d7565b9450506020610e0887828801610d5f565b935050604085013567ffffffffffffffff811115610e2957610e286106c7565b5b610e3587828801610d79565b925092505092959194509250565b600082825260208201905092915050565b7f4530313600000000000000000000000000000000000000000000000000000000600082015250565b6000610e8a600483610e43565b9150610e9582610e54565b602082019050919050565b60006020820190508181036000830152610eb981610e7d565b9050919050565b7f4e487b7100000000000000000000000000000000000000000000000000000000600052603260045260246000fd5b600081905092915050565b6000610f0582610be5565b610f0f8185610eef565b9350610f1f818560208601610c01565b80840191505092915050565b6000610f378284610efa565b915081905092915050565b7f4530323500000000000000000000000000000000000000000000000000000000600082015250565b6000610f78600483610e43565b9150610f8382610f42565b602082019050919050565b60006020820190508181036000830152610fa781610f6b565b9050919050565b7f4e487b7100000000000000000000000000000000000000000000000000000000600052601160045260246000fd5b6000610fe8826108af565b91507fffffffffffffffffffffffffffffffffffffffffffffffffffffffffffffffff820361101a57611019610fae565b5b600182019050919050565b600082825260208201905092915050565b60006110428385611025565b935061104f8385846109de565b611058836106d1565b840190509392505050565b6000602082019050818103600083015261107e818486611036565b90509392505050565b7f536d6172742057616c6c657420416374696f6e204661696c6564000000000000600082015250565b60006110bd601a83610e43565b91506110c882611087565b602082019050919050565b600060208201905081810360008301526110ec816110b0565b9050919050565b600081519050919050565b6000611109826110f3565b6111138185610e43565b9350611123818560208601610c01565b61112c816106d1565b840191505092915050565b611140816107ae565b82525050565b6000604082019050818103600083015261116081856110fe565b905061116f6020830184611137565b939250505056fea264697066735822122061eefa43a86afa288a45dd71c13fea66a03d966fb18047a59784631d7d564e8664736f6c63430008130033",
  "devdoc": {
    "author": "0xTraub",
    "errors": {
      "ERC1167FailedCreateClone()": [
        {
          "details": "A clone instance deployment failed."
        }
      ],
      "ReentrancyGuardReentrantCall()": [
        {
          "details": "Unauthorized reentrant call."
        }
      ]
    },
    "kind": "dev",
    "methods": {},
    "title": "TokenVault",
    "version": 1
  },
  "userdoc": {
    "events": {
      "WithdrawERC20(address,address,bytes32,uint256,address)": {
        "notice": "Emitted when an FNFT is withdraw  to denote what tokens have been withdrawn"
      }
    },
    "kind": "user",
    "methods": {
      "TEMPLATE()": {
        "notice": "Address to use for EIP-1167 smart-wallet creation calls"
      }
    },
    "version": 1
  },
  "storageLayout": {
    "storage": [
      {
        "astId": 1086,
        "contract": "src/TokenVault.sol:TokenVault",
        "label": "_status",
        "offset": 0,
        "slot": "0",
        "type": "t_uint256"
      }
    ],
    "types": {
      "t_uint256": {
        "encoding": "inplace",
        "label": "uint256",
        "numberOfBytes": "32"
      }
    }
  }
}